{
  "transactions": [
    {
      "hash": "0xc6e808451d4beadd0516c2420b39e39df7201a2e23609664ab591b3d76c04556",
      "transactionType": "CALL",
      "contractName": null,
      "contractAddress": "0x700ea8b631928d8803a4ff430a51d1400d17377c",
      "function": "mintNft(string)",
      "arguments": [
        "ipfs://QmcQb1rrDzbtPxyBMyqbGeqaG4N7PCnmw5P81eR4Wj4uqG"
      ],
      "transaction": {
        "from": "0x818c95937cf7254ce5923e4e1dbf2faf0ddad06e",
        "to": "0x700ea8b631928d8803a4ff430a51d1400d17377c",
        "gas": "0x35fd3",
        "value": "0x0",
        "input": "0xda86f4a900000000000000000000000000000000000000000000000000000000000000200000000000000000000000000000000000000000000000000000000000000035697066733a2f2f516d635162317272447a6274507879424d7971624765716147344e3750436e6d7735503831655234576a347571470000000000000000000000",
        "nonce": "0x33",
        "chainId": "0xaa36a7"
      },
      "additionalContracts": [],
      "isFixedGasLimit": false
    }
  ],
  "receipts": [
    {
      "status": "0x1",
      "cumulativeGasUsed": "0x89b34d",
      "logs": [
        {
          "address": "0x700ea8b631928d8803a4ff430a51d1400d17377c",
          "topics": [
            "0xddf252ad1be2c89b69c2b068fc378daa952ba7f163c4a11628f55a4df523b3ef",
            "0x0000000000000000000000000000000000000000000000000000000000000000",
            "0x000000000000000000000000818c95937cf7254ce5923e4e1dbf2faf0ddad06e",
            "0x0000000000000000000000000000000000000000000000000000000000000000"
          ],
          "data": "0x",
          "blockHash": "0x36471a7e3a89c91be1cba0439652a3760fa247fb8acf5a7c909de0a6d796fe5f",
          "blockNumber": "0x83183c",
          "transactionHash": "0xc6e808451d4beadd0516c2420b39e39df7201a2e23609664ab591b3d76c04556",
          "transactionIndex": "0x89",
          "logIndex": "0x6e",
          "removed": false
        }
      ],
      "logsBloom": "0x00000000000000000000000000000000000000000000000000000000000000000000000000000000000000000000000000000000000000000000080000000000000000000000000000000008000000000000000000000000000000000000000000000000020000000000000008000800000000000000022000000010000000000000000000000000000000000000000000000000000000000000000000000000000000000000000000000000000000000000008000000000000000000000000000000002000000000000000000000000000000000000000000000000000020000000000000000000000800000000000000000000000000000000000000000000",
      "type": "0x2",
      "transactionHash": "0xc6e808451d4beadd0516c2420b39e39df7201a2e23609664ab591b3d76c04556",
      "transactionIndex": "0x89",
      "blockHash": "0x36471a7e3a89c91be1cba0439652a3760fa247fb8acf5a7c909de0a6d796fe5f",
      "blockNumber": "0x83183c",
      "gasUsed": "0x27165",
      "effectiveGasPrice": "0x1f6b49",
      "from": "0x818c95937cf7254ce5923e4e1dbf2faf0ddad06e",
      "to": "0x700ea8b631928d8803a4ff430a51d1400d17377c",
      "contractAddress": null
    }
  ],
  "libraries": [],
  "pending": [],
  "returns": {},
  "timestamp": 1750439582,
  "chain": 11155111,
  "commit": "822250d"
}