{
  "transactions": [
    {
      "hash": "0x346e91821256369b55b3ae65624ffa9df9bf22a222960aaf2d51f10a10a490c6",
      "transactionType": "CALL",
      "contractName": null,
      "contractAddress": "0xe7eb5e52f671ef4125e41f4d6ade726ff149eca3",
      "function": "mintNft(string)",
      "arguments": [
        "ipfs://QmcQb1rrDzbtPxyBMyqbGeqaG4N7PCnmw5P81eR4Wj4uqG"
      ],
      "transaction": {
        "from": "0x818c95937cf7254ce5923e4e1dbf2faf0ddad06e",
        "to": "0xe7eb5e52f671ef4125e41f4d6ade726ff149eca3",
        "gas": "0x35fd3",
        "value": "0x0",
        "input": "0xda86f4a900000000000000000000000000000000000000000000000000000000000000200000000000000000000000000000000000000000000000000000000000000035697066733a2f2f516d635162317272447a6274507879424d7971624765716147344e3750436e6d7735503831655234576a347571470000000000000000000000",
        "nonce": "0x2c",
        "chainId": "0xaa36a7"
      },
      "additionalContracts": [],
      "isFixedGasLimit": false
    }
  ],
  "receipts": [
    {
      "status": "0x1",
      "cumulativeGasUsed": "0x16756b5",
      "logs": [
        {
          "address": "0xe7eb5e52f671ef4125e41f4d6ade726ff149eca3",
          "topics": [
            "0xddf252ad1be2c89b69c2b068fc378daa952ba7f163c4a11628f55a4df523b3ef",
            "0x0000000000000000000000000000000000000000000000000000000000000000",
            "0x000000000000000000000000818c95937cf7254ce5923e4e1dbf2faf0ddad06e",
            "0x0000000000000000000000000000000000000000000000000000000000000000"
          ],
          "data": "0x",
          "blockHash": "0x2624b0387a6bb521524e2cf67267dfcc0099e3a6d66de5627603413272b05eb1",
          "blockNumber": "0x82b520",
          "transactionHash": "0x346e91821256369b55b3ae65624ffa9df9bf22a222960aaf2d51f10a10a490c6",
          "transactionIndex": "0x93",
          "logIndex": "0x1dd",
          "removed": false
        }
      ],
      "logsBloom": "0x00000000000000000000000000000000000000000000000000000000000000000000000000000000000000008000000000000000000000000000080000000000000000000000000000000008000000000000000000000000400000000000000000000000020000000000000008000800000000000000002000000010000000000040000000000000000000000000000000000000000000000000000000000000000000000000000000000000000000000000000000000000000000000000000000000002000000000000000000000000000000000000000000000000000020000000000000000000000000000000000000000000000000000000000000000000",
      "type": "0x2",
      "transactionHash": "0x346e91821256369b55b3ae65624ffa9df9bf22a222960aaf2d51f10a10a490c6",
      "transactionIndex": "0x93",
      "blockHash": "0x2624b0387a6bb521524e2cf67267dfcc0099e3a6d66de5627603413272b05eb1",
      "blockNumber": "0x82b520",
      "gasUsed": "0x27165",
      "effectiveGasPrice": "0x682db8",
      "from": "0x818c95937cf7254ce5923e4e1dbf2faf0ddad06e",
      "to": "0xe7eb5e52f671ef4125e41f4d6ade726ff149eca3",
      "contractAddress": null
    }
  ],
  "libraries": [],
  "pending": [],
  "returns": {},
  "timestamp": 1750133581,
  "chain": 11155111,
  "commit": "131a8ad"
}