{
  "transactions": [
    {
      "hash": "0xca60fd9d931b3e994b04a20ba36e3aad19c9fcd37d9506c7eba288c4ece5a71d",
      "transactionType": "CALL",
      "contractName": null,
      "contractAddress": "0x95a5c0b10cf98c44c19b78956f05c50949b586ba",
      "function": "mintNft(string)",
      "arguments": [
        "ipfs://QmcQb1rrDzbtPxyBMyqbGeqaG4N7PCnmw5P81eR4Wj4uqG"
      ],
      "transaction": {
        "from": "0x818c95937cf7254ce5923e4e1dbf2faf0ddad06e",
        "to": "0x95a5c0b10cf98c44c19b78956f05c50949b586ba",
        "gas": "0x35fd3",
        "value": "0x0",
        "input": "0xda86f4a900000000000000000000000000000000000000000000000000000000000000200000000000000000000000000000000000000000000000000000000000000035697066733a2f2f516d635162317272447a6274507879424d7971624765716147344e3750436e6d7735503831655234576a347571470000000000000000000000",
        "nonce": "0x2a",
        "chainId": "0xaa36a7"
      },
      "additionalContracts": [],
      "isFixedGasLimit": false
    }
  ],
  "receipts": [
    {
      "status": "0x1",
      "cumulativeGasUsed": "0x108881f",
      "logs": [
        {
          "address": "0x95a5c0b10cf98c44c19b78956f05c50949b586ba",
          "topics": [
            "0xddf252ad1be2c89b69c2b068fc378daa952ba7f163c4a11628f55a4df523b3ef",
            "0x0000000000000000000000000000000000000000000000000000000000000000",
            "0x000000000000000000000000818c95937cf7254ce5923e4e1dbf2faf0ddad06e",
            "0x0000000000000000000000000000000000000000000000000000000000000000"
          ],
          "data": "0x",
          "blockHash": "0x52109a487f5fb0de5aa7954380c35381aa64b5c36defe5bb7ce7a642c76f3cc9",
          "blockNumber": "0x82b3ef",
          "transactionHash": "0xca60fd9d931b3e994b04a20ba36e3aad19c9fcd37d9506c7eba288c4ece5a71d",
          "transactionIndex": "0xa8",
          "logIndex": "0xf3",
          "removed": false
        }
      ],
      "logsBloom": "0x00000000000000000000000000000000000000000000000000080000000000000000000800000000000000000000000000000000000000000000080000000000000000000000000000000008000000000000000000000000000000000000000000000000020000000000000008000800000000000000002000000010000000000000000000000000000000000000000000000000000000000000000000000000000000000000000000000000000000000000000000000000000000000000000000000002000000000000000000000000000000000000000000000000000020000000000000000000000000000000000000000000000000000000000200000000",
      "type": "0x2",
      "transactionHash": "0xca60fd9d931b3e994b04a20ba36e3aad19c9fcd37d9506c7eba288c4ece5a71d",
      "transactionIndex": "0xa8",
      "blockHash": "0x52109a487f5fb0de5aa7954380c35381aa64b5c36defe5bb7ce7a642c76f3cc9",
      "blockNumber": "0x82b3ef",
      "gasUsed": "0x27165",
      "effectiveGasPrice": "0x1cbda6",
      "from": "0x818c95937cf7254ce5923e4e1dbf2faf0ddad06e",
      "to": "0x95a5c0b10cf98c44c19b78956f05c50949b586ba",
      "contractAddress": null
    }
  ],
  "libraries": [],
  "pending": [],
  "returns": {},
  "timestamp": 1750129909,
  "chain": 11155111,
  "commit": "131a8ad"
}